:020000041000EA
:1000000000B5324B212058609868022188439860DF
:10001000D860186158612E4B002199600221596106
:100020000121F02299502B49196001219960352056
:1000300000F044F80222904214D00621196600F024
:1000400034F8196E01211966002018661A6600F04E
:100050002CF8196E196E196E052000F02FF8012189
:100060000842F9D1002199601B49196000215960AB
:100070001A491B48016001219960EB211966A021F2
:10008000196600F012F800219960164914480160C1
:100090000121996001BC002800D000471248134993
:1000A000086003C880F30888084703B5996A0420EC
:1000B0000142FBD001200142F8D103BD02B5186610
:1000C0001866FFF7F2FF186E186E02BD00000240BE
:1000D000000000180000070000035F00212200005C
:1000E000F4000018222000A00001001008ED00E03C
:1000F00000000000000000000000000074B24E7A12
:1001000000200420F7010010C3010010C5010010F9
:10011000C1010010C1010010C1010010C101001097
:10012000C1010010C1010010C1010010C701001081
:10013000C1010010C1010010C9010010CB01001065
:10014000CD010010CD010010CD010010CD01001037
:10015000CD010010CD010010CD010010CD01001027
:10016000CD010010CD010010CD010010CD01001017
:10017000CD010010CD010010CD010010CD01001007
:10018000CD010010CD010010CD010010CD010010F7
:10019000CD010010CD010010CD010010CD010010E7
:1001A000CD010010CD010010CD010010CD010010D7
:1001B000CD010010CD010010CD010010CD010010C7
:1001C00000BE00BE00BE00BE00BE00BEEFF3058054
:1001D000103800BEF2EB8871502801107C28011005
:1001E0003402001090A31AE700201F49086006C8D7
:1001F00081F3088810471D48006800282FD10DA4FE
:100200000ECC002902D000F012F8F9E71849194A7B
:10021000002000E001C19142FCD1174988471749ED
:1002200088471749884700BEFDE701C901C29A42C5
:10023000FBD370477C280110C00000206011002013
:100240001C39011000000420000004201C3901109A
:10025000001004200010042000000000704709482E
:100260000AF086F80047000008ED00E0000000D02A
:1002700080110020902B0020F9900010290600101A
:10028000B59000105756000006005250ABB36053B3
:10029000D81E011006005250861C0302E81E0110F1
:1002A000060052505422A29DFC1E0110050052501F
:1002B000DE65F4681C390110F8B5C04610B5064C6F
:1002C0002378002B07D1054B002B02D0044800E017
:1002D00000BF0123237010BD801400200000000027
:1002E00020F90010044B10B5002B03D0034904483B
:1002F00000E000BF10BDC0460000000084140020D4
:1003000020F9001070B500290AD001238340D022C3
:100310001206936253610022002106F077FE70BD41
:1003200001248440D0252D066C620022002106F0B5
:100330006DFEAC61F3E7000010B504004378DB0705
:1003400013D463781022110019401A4203D0124BC3
:100350001B78002B0FD0002903D10F4B1B78002BEB
:1003600011D10A2007F0B4FF10BD002200210020A7
:1003700008F064FEE5E7084B0F3A1A7000210420EC
:10038000FFF7C0FFEDE701310420FFF7BBFF024B91
:1003900000221A70E5E7C046852B002070B50028C2
:1003A0000DD0D024240640256561642007F090FF1D
:1003B00020236361642007F08BFFA56170BDD0240A
:1003C000240640256561642007F082FF2023A36195
:1003D000642007F07DFFA561F0E710B5002804D088
:1003E00001210420FFF78EFF10BD00210420FFF73C
:1003F00089FFF9E710B5102000F062FB122000F031
:100400005FFB152000F05CFB162000F059FB172065
:1004100000F046FB142000F043FB112000F040FBED
:100420000E2000F05CFB10BDF8B5DE4657464E4688
:100430004546E0B50400D026360680231B049946C5
:10044000B3610520002107F017FF73685B0D0125DC
:100450002B405A42534101273B401B012278102177
:100460008A468A431343237073689B0D2B405A427C
:1004700053413B405B012278103188468A43134345
:10048000237073681B0C2B405A4253413B409B0125
:10049000227820318A431343237073689B0C2B40CE
:1004A0005A425341DB0121787F220A4013432370D3
:1004B0004B46736180235B039946B361052000219D
:1004C00007F0DAFE73689B0D2B405A4253413B40C4
:1004D0009B00227804218B468A4313432370736860
:1004E0005B0D2B405A4253413B40DB0022780431E4
:1004F0008A431343237073689B0C2B405A42534129
:100500003B405B00227806398A43134323707368AB
:100510001B0C2B405A4253413B402278AA431343C1
:1005200023704B46736180239B029946B36105207B
:10053000002107F0A1FE73685B0D2B405A42534126
:100540003B406278AA431343637073689B0C2B4053
:100550005A4253413B409B006278584682431343C2
:10056000637073681B0C2B405A4253413B401B0184
:10057000627850468243134363704B4673617368DD
:100580009B0B1D406B425D412F407A0163784046D2
:10059000834313436370FF00A57808218D432F43E5
:1005A000A770DAB224231340242B1BD0A378022295
:1005B0009343A370627821231340212B1FD0A3788B
:1005C00001229343A3706378DB06DB0F1B01A27843
:1005D00010218A431343A370F0BCBB46B246A94620
:1005E000A046F8BD1300202293436370DBB21C3A8F
:1005F00093436370FBB202221343A370DAE7130044
:10060000202293436370DBB21F3A93436370A37855
:100610001343A370D7E780231B010360436083600B
:10062000C36070477047000010B584B00BF082FDC6
:10063000642007F04DFE21480BF040FDFFF7DAFE85
:10064000042006F0FDFC0020FFF7C7FE062006F0A0
:10065000F7FCD024240640236362A361052006F042
:10066000EFFC20236362A36101AC0C220021200077
:100670000BF0E8FB2000FFF7D7FE114B1B886A4602
:100680001380627811231340112B09D014231340D7
:10069000142B0CD0684600F00FF9002004B010BDF8
:1006A000084809F065FE0300002108009847123B46
:1006B0006A46137005335370ECE7C04620F900100A
:1006C00038F90010554200000120704730B583B062
:1006D00001AC2378102293432370DAB27F231340B6
:1006E0002370DBB2402293432370DBB23C3A934346
:1006F0002370DBB20125AB432370DBB2023A934394
:100700002370FFF7E1FF01230340DB00207808227C
:10071000904318432070C3B2183293432370637818
:10072000AB436370208803B030BD7047704770479B
:1007300010B5041C0348046041608260C360FFF789
:10074000F6FF10BDE02800207047000010B512E051
:100750000C4B9A6A0C4B1A600C480FF061F800F0D1
:1007600007FC094C206805F0EDF9206803F078FCDF
:100770002068FFF757FF064904480FF071F800287A
:10078000E6D1ECE7004005409C1900202011002034
:10079000141D002070470000014B002018567047C0
:1007A000980E002010B50020FFF717FE0020FFF77D
:1007B000F5FD00220021002008F040FC10BD0000E3
:1007C00010B5304B1B78002B33D02F492F480FF03A
:1007D00047F8002835D12E48FFF726FE2D4B1B7811
:1007E000002B36D103F050FF2B4C2068284905F030
:1007F00029FA206801F008FB05F07EFD002835D0BD
:10080000254C2068254904F011F92068244A25491F
:1008100005F09EFD244B00221A70244B1B785BB21E
:10082000012B2AD008F0B8FB1B4B1868FFF7B2FF6A
:1008300010BD00211E4808F0F5FB124B01221A7072
:10084000C3E71C4B9A6A144B1A6010480EF0E8FF7D
:10085000C1E70F48FFF770FD08F09EFB0E4C2068C3
:1008600001F0D2FA206801F007FBE1E70A4B1868B3
:100870000C4A0B4900F0AEFCCFE7074B186801F0BB
:10088000FBFACFE77D2B0020101D00202011002057
:10089000E81400205A2B00209C190020B0140020DE
:1008A000F4140020D0140020612B0020980E0020AA
:1008B0004C1D00000040054070B5051E00D1D0E081
:1008C00001F030FB0400FFF795FD6648FFF7ACFD33
:1008D00000F0AAFB00282DD0624E3300624A634923
:1008E000634804F043FF05F081F9B378DB0626D4B2
:1008F000E3B2012B29D0022B2CD001242C57631CEE
:100900002FD00022AA565B4B1A70564B1B789A06C2
:100910002BD45A0645D4DA0645D45AB2002A44DB11
:100920005A0744D40A221A40022A42D01B071DD576
:1009300003241BE03221504801F0D0F9CCE7062215
:1009400000214E480BF07EFAD2E74A4B02221A7081
:100950000024DAE723041B0F464A13702405240FF2
:10096000D3E7474B02241C57CBE70624FFF7DEFEF4
:1009700002F0F4F9424AE2235B00D65C3D4B1B785F
:100980005BB2013317D06425002001F0A5FAFA20EC
:1009900001F07AFAE3B2062B3DD8A300394AD358C6
:1009A0009F460124E2E70024E0E70224DEE7052475
:1009B000DCE70424DAE701F091FA002804D12D4B9A
:1009C00002221A704625DFE72A4B01221A7064259D
:1009D000DAE72D48322101F081F92900300001F0D9
:1009E0008FF9244B00215956200000F003FC1D4BC9
:1009F0009B789B0730D4254A1A49200003F0ECFC71
:100A00000BF0B2FE22480BF09DFEFFF7D9FEFCE78B
:100A1000FF200006DEE71F48DCE7FF200002D9E7E1
:100A2000002001F031FA134B00221A70FF2000045D
:100A30001925CFE7002001F027FA0E4B00221A708B
:100A400015480F25C6E7002001F01EFA094B0022C9
:100A50001A7012481925BDE7094B9C7000F0DEFAA8
:100A6000C9E770BDE8140020B0140020D0140020A5
:100A7000C0140020980E00200000FF4DFC13002041
:100A8000801200203CF9001000F115FFF414002042
:100A90004D07001000A1A1A100FF61000000FFE6CA
:100AA00010B5040006F0CCFA00220121200006F067
:100AB000ADFA0123A340D02212065362536110BD48
:100AC00010B5040006F0BCFA00220121200006F057
:100AD0009DFA0123A340D0221206936210BD10B5E7
:100AE000040006F0ADFA00220121200006F08EFA83
:100AF0000123A340D0221206936210BD094ABD23F0
:100B00005B00D35C1A1C312B00D83222054BBD216F
:100B100049005A54DA787A39FF398A43DA709B22CD
:100B20001A7270478012002070B5050014006A4BDD
:100B30001380012900D070BD0223C3569370D01CCE
:100B4000E91C06220BF084F9EB68E3602B69236152
:100B50006B696361AB69A36120001C3029001C3103
:100B600020220BF075F920003C3029003C31202276
:100B70000BF06EF920005C3029005C3120220BF074
:100B800067F920007C3029007C3120220BF060F9CD
:100B900020009C3029009C3106220BF059F92000DE
:100BA000A2302900A23106220BF052F92000A83011
:100BB0002900A83130220BF04BF920002930FF30FA
:100BC0002900D83110220BF043F920003930FF30D2
:100BD0002900E83110220BF03BF920004930FF30AA
:100BE0002900F83110220BF033F920005930FF3082
:100BF00029000931FF3110220BF02AF92000693059
:100C0000FF3029001931FF3110220BF021F9942314
:100C10005B00EA5C5033E2542A23FF33EA5C7A2318
:100C2000FF33E2544F3BEA5C5033E2542C23FF3352
:100C3000EA5C7C23FF33E25420007D30FF30290042
:100C40002D31FF3106220BF003F920008530FF30F3
:100C500029003531FF3120220BF0FAF82000A530B1
:100C6000FF3029005531FF3120220BF0F1F8BA2373
:100C70005B00EA5C5033E2542000C930FF302900A9
:100C80007931FF3118220BF0E3F8C8235B00EA5CEE
:100C90005033E2544E3BEA5A5033E2524E3BEA5A4A
:100CA0005033E2524E3BEA5A5033E2524E3BEA5A3C
:100CB0005033E2524E3BEA5A5033E2524E3BEA5A2C
:100CC0005033E2524E3BEA5A5033E2524E3BEA5A1C
:100CD0005033E2522FE7C04602A0FFFF064B984276
:100CE00004D0064B984203D1022070470120FCE754
:100CF00001204042F9E7C04601A0000002A0000028
:100D000010B512480BF00AFA002407E0104B5B18EC
:100D1000D97810480BF002FA0134E4B2052C0DD852
:100D20000BF0F6FF2100C0B2094A1219D070002C56
:100D3000ECD1130001229043D870E7E7044B9B22CB
:100D40001A720A200BF086F910BDC04658F900103F
:100D50008012002068F90010F0B5DE4657464E4676
:100D60004546E0B56F4CA544FC256D002A000021E6
:100D700002A80BF067F86C4B02AA1380059B019345
:100D8000DB0FDB078022120113430593069B0193BF
:100D9000DB0FDB0713430693079B0193DB0FDB0796
:100DA00013430793089B0193DB0FDB071A43089259
:100DB0005E4F0A975E4E0B965E4C0C945E480D900B
:100DC0005E490E915E4A0F925E4B109312971396F6
:100DD000149415901691179218935B4B19931A93CC
:100DE0001B931C931D931E931F932093219380228A
:100DF00002A98B5004328B5004328B5004328B503A
:100E000004328B5004328B5004328B50FF231B046E
:100E10009A46A8230A005146D1504C4B9B46AC231E
:100E20005946D1504A4B9946B0234946D150FF23E9
:100E30001B069846B4234146D150FF2636020433A0
:100E4000D6500433434A02A9CA50434F04330A0020
:100E5000CF5004335146D15004334146D15004336E
:100E6000D65004334946D1500433D6503B4BD82298
:100E700002A98B5004328B5004328B5004328B50B9
:100E8000E823CF50B63B7A22FF328B5401328B5489
:100E9000173AFF3AF121490002A842520231435267
:100EA000023142528532FF32010083522C4C2A001B
:100EB00020000AF0CDFF002003F054FA012003F0D7
:100EC00051FA032003F04EFA042003F04BFA0520F8
:100ED00003F048FA20009C30062200210AF0B2FFFD
:100EE0002000A230062200210AF0ACFFFFF708FF25
:100EF000E4235B005246E25004335A46E250043386
:100F00004A46E25004334246E2500433E65004338A
:100F1000E75081239B009D44F0BCBB46B246A946E6
:100F2000A046F0BDFCFDFFFF02A0FFFF0000344221
:100F30000000B44200000743000034430000614356
:100F40000000874300809D43000016440000FF4DD1
:100F50000000FFE600F115FF00FF610000A1A1A164
:100F600080120020014B18787047C046872B002064
:100F700070B5204CA544204B1B78002B03D1802357
:100F80005B019D4470BD0BF007FCEFF3108672B659
:100F90001A4B1B78002B24D1194C00230093194ABB
:100FA000002101A80AF04EFFFC22520016496846B3
:100FB0000AF04EFF80256D01290020000EF058FC3C
:100FC0002A00694620000EF03BFC86F310880BF0E7
:100FD000EDFB0E4B1B78002B06D1074B00221A703D
:100FE000CDE796246403D8E705F046FA074B0022C4
:100FF0001A70F2E700F0FFFF732B0020872B002010
:1010000000D01200FC0F0000801200207E2B002078
:10101000014B01221A7070477E2B0020014B0122E8
:101020001A707047732B002070B5394B1888394BF4
:101030001D88FFF753FE04002800FFF74FFE050050
:10104000631C0BD0022C0FD0022D0DD0012C2CDDF7
:10105000012D2ADD0023002200262CE0431CF1D1C3
:1010600000230022012626E0022C05D0022D0FD0FD
:101070000023002200261EE0FC22520024492648BC
:101080000AF0E6FE254B00221A700023002612E02B
:10109000FC2252001F4920480AF0DAFE1F4B0122B1
:1010A0001A7000230022002605E00123012C15DD23
:1010B000DBB201220026002E12D1002A23D0002B01
:1010C00018D1164B01221A70134A21001048FFF75D
:1010D0002BFD0020FFF7A2FF300070BD0023E7E7E3
:1010E0000E4B00221A70FFF737FE0020FFF796FF25
:1010F0000026F1E7094B00221A70074A290005482B
:10110000FFF712FDE5E7FFF7F9FC0126E4E7C0462B
:1011100000D0121000C0121080120020872B002077
:1011200010B5031C642800D9642303497A22FF32D6
:101130008B54FFF7FBFA10BD8012002010B5022877
:1011400017D008D800280DD001280FD10B4AF22360
:101150005B00D1520AE0032808D1084AF4235B005F
:10116000D15203E0054AF1235B00D15203F08EFF18
:1011700010BD024AF3235B00D152F7E78012002032
:1011800030B50F4C40004508E068C00FC007284349
:10119000E060490048082169C90FC907014321617E
:1011A000520051086269D20FD2070A4362615B00A4
:1011B0005A08A369DB0FDB071343A36130BDC046A8
:1011C00080120020062800DD0020014B9870704737
:1011D0008012002010B5034B1B68002B00D09847ED
:1011E00010BDC0469C170020014B002018567047C8
:1011F000622B002010B588B00400234B18700C221D
:10120000002105A80AF01EFE1022002101A80AF004
:1012100019FEE3B2062B03D8A4001C4B1B599F46B2
:101220001B4B1C4A1A60002000F048FF08B010BD9C
:10123000174B184A1A60062000F040FFF6E7144BDF
:10124000144A1A60012000F039FFEFE7104B114AF1
:101250001A60022000F032FFE8E70D4B0E4A1A60D8
:1012600001AA05A90020FFF7B5FFDFE7084B0B4AED
:101270001A6001AA05A90020FFF7ACFFD6E7044BCE
:10128000074A1A60D2E7C046622B002090F900108E
:101290009C1700206D2100108561001087610010EF
:1012A00089610010F0B5C64600B590B004000D008D
:1012B00016001F0016AB1B789846494B984200D188
:1012C00088E00721380005F089FE012300933A00E9
:1012D000290020000BF008FE1022002108A80AF0C7
:1012E000B1FD80235B020893F8235B0209938023FE
:1012F000DB020A93C0231B030A93102208A904A847
:101300000AF0A6FDF31C059A039236491140F2013A
:1013100011431B0319430591079B0393DB00DB0873
:1013200080229205134307932F4B194005911022F9
:1013300004A90CA80AF08CFD0F9B03932B4A1A40BA
:10134000BF0217430F974346002B45D020220E9B28
:1013500003932749194080239B020B435206F8212F
:1013600089050A4013430E939B009B088022D205F7
:1013700013430E93052007F071FD1E4909F04CF848
:101380000AF0B1FB80460AF007FC87B2002F25D097
:1013900038000AF0A8FB011C40460AF030FB872108
:1013A000C9050AF04CFB0AF0F7FBC0B200023F048B
:1013B00007430C970CAB3200290020000BF0E6FD30
:1013C00022680123AB409A431343236010B080BCD2
:1013D000B846F0BD062175E71822B8E70020E5E71A
:1013E000000020507F00FEFFFFFFFF9FFF83FFFFF5
:1013F000FFFFF5C10050C300014B01221A70704776
:101400006D2B002070B5254B1B78002B17D1244B7A
:1014100000221A70214B01321A7000240A2C09D8BC
:101420000BF076FC062108F0F7FF1E4B195501342E
:10143000E4B2F3E71C4B00221A70002428E01A4B98
:101440001B78002BF9D1194B1B789A009B18FA2BAB
:1014500000D9FA23FF221A40FF239B1A9BB2144A99
:101460001380144A1380104B01221A70E5E70D4DCA
:101470002B5D72339B00104A9958A2000F4BD1503C
:101480000BF046FC062108F0C7FF29550134E4B2F1
:101490000A2CECD9FFF7B0FF70BDC0466C2B0020C2
:1014A0005E2B0020B4170020BD0E0020BB0E0020D4
:1014B0004C2B0020482B002080120020B01B002065
:1014C000034B1980034B1860034B00221A707047BE
:1014D0004A2B00204C1B00206A2B002070B5050011
:1014E0000C0000880AF0FFFA1B490AF092FA1B4927
:1014F0000AF0A5FA0AF050FBC2B22B79A978C943C9
:10150000C9B25943090A5B1ADBB23F2528402D1A9C
:10151000EDB2584380096B439B11DBB20818C0B28F
:10152000CB18DBB23F2A10D9403AD2B23F2A06D8B4
:101530001A060B061B0A0002134318430AE00906A9
:1015400000041B020843184304E000061B040902C0
:1015500018430843206070BD00007F4300003F43F4
:10156000F8B5CE46474680B50400234B1D78002DC4
:1015700005D100230360C0BCB946B046F8BD642D58
:10158000F9D08778E678B81963789846C0180AF0D9
:10159000AFFA1A490AF03DFA814628000AF0A3FA88
:1015A00017490AF036FA051C011C48460AF086FA6B
:1015B0000028E0D14946281C0AF02BFA051C380007
:1015C0000AF091FA291C0AF03AFA0AF0E5FAA0703A
:1015D00030000AF088FA291C0AF031FA0AF0DCFA25
:1015E000E07040460AF07FFA291C0AF028FA0AF057
:1015F000D3FA6070BFE7C046BA0E002000007F43F8
:101600000000C842F0B5D6464F464646C0B5040075
:101610000368002B35D083789846C778D819667848
:1016200080190AF065FA051C40460AF05CFA80460B
:10163000291C0AF0EEF9824638000AF054FA071C19
:10164000291C0AF0E6F9814630000AF04CFA061C23
:10165000291C0AF0DEF9051C514640460AF0EFF954
:101660000AF09AFAA0704946381C0AF0E8F90AF024
:1016700093FAE070291C301C0AF0E1F90AF08CFAA8
:101680006070E0BCBA46B146A846F0BD30B585B042
:101690001D4B1B78002B0FD100240A2C09D80BF00E
:1016A00037FBFF2108F0B8FE184B19550134E4B29E
:1016B000F3E7154B01221A7000241FE0134D2B5D38
:1016C000134A1078C018FF2108F07EFEC9B22955D0
:1016D00002A80180FF23438083800023019301A996
:1016E000FFF7FCFE01A8FFF73BFF0A48A300019AA1
:1016F0001A50C018FFF786FF0134E4B20A2CDDD976
:10170000FFF77AFE05B030BD6C2B00201C1B0020BB
:10171000BB0E0020B01B002000220AE09300064907
:101720005958064B5B68DB03FBD4044B196101324B
:10173000D2B20A2AF2D97047501B00200000205074
:10174000F8B5DE4657464E464546E0B506000D0064
:10175000141C80780AF0C7F98046F0780AF0C3F9C3
:10176000071C70780AF0BFF9061CA8780AF0BBF9CC
:101770008346E8780AF0B7F9824668780AF0B3F948
:101780008146414658460AF03AF9211C0AF057F9B9
:1017900041460AF039F9051C391C50460AF02FF968
:1017A000211C0AF04CF9391C0AF02EF9071C311CD7
:1017B00048460AF024F9211C0AF041F9311C0AF0CC
:1017C00023F9061C281C0AF0E7F9C5B2381C0AF0F8
:1017D000E3F9C4B2301C0AF0DFF9C0B22D040002F4
:1017E000240628432043F0BCBB46B246A946A04687
:1017F000F8BD000010B5044B1870044B00221A709D
:10180000FFF7FAFD10BDC0466F2B00206C2B0020A7
:10181000F8B52D4B1D8828000AF06AF9011CFE203E
:1018200080050AF0F6F8041C284B1B78002B11D019
:101830002749284B0A0043CB43C243CB43C243CB87
:1018400043C203CB03C20023234A13701F4A137001
:10185000224A1370204B1E78B54204D21F4B1878D1
:1018600000281ED0F8BD30000AF03DF9211C0AF016
:10187000E6F8051C00240BE0A7001949C919144813
:10188000C0192A1CFFF75CFF124BD8510134E4B297
:101890000A2CF1D90136104B1E70FFF73DFF0020D6
:1018A000E0E70C490E4B0A0013CB13C213CB13C253
:1018B00013CB13C203CB03C2FFF72EFF074B01224A
:1018C0001A700120CEE7C046482B00206D2B002067
:1018D000841B0020501B0020BF0E0020BC0E0020E7
:1018E000B01B0020F0B5C64600B506000F0015007D
:1018F000984600240AE0335D9B004246EA50305D82
:1019000080002818FFF77EFE0134E4B2BC42F2D317
:1019100080BCB846F0BD0000031C642800D96423D5
:10192000014A13707047C046BA0E002030B583B02C
:10193000050000240CE0019501A8FFF711FE064800
:10194000A300019A1A50C018FFF75CFE0134E4B2FC
:101950000A2CF0D903B030BDB01B002010B50948E7
:101960000388094A12789B18FF2213400380074C12
:101970002100FFF7B3FD2068FFF7D8FFFFF73CFD1C
:1019800010BDC046B40E0020BB0E0020181B002066
:1019900010B51A4B1B78002B17D1194A1370174A30
:1019A00001211170174A1370154C237872339B0074
:1019B000154A9858FFF7BAFF20780130062108F041
:1019C00003FD2170FFF718FD10BD0E4B1B78002B97
:1019D000EAD10E4B1B789A009B18FA2B00D9FA23F8
:1019E000FF221A40FF239B1A9BB2094A1380094A1F
:1019F0001380044B01221A70D6E7C0466C2B0020DE
:101A00005E2B0020BE0E002080120020BB0E0020A6
:101A10004C2B0020482B002010B50F4B1B78002BBF
:101A200010D10E4B1B68002B02D10C4B0C4A1A60D4
:101A30000A4B1868FFF77AFFFFF7DEFC064B01221E
:101A40001A7010BD0020FFF771FFFFF7D5FC024BA5
:101A500000221A70F5E7C046842B00207C1B002072
:101A60000000FFE670B51D4B1C78002C05D01C4B08
:101A70001B78002B1ED0200070BD1A491A480B009D
:101A8000020023CA23C323CA23C323CA23C303CA0E
:101A900003C3164B1868FFF749FF154B1A88154BFF
:101AA0001A80FFF7A9FC0D4B01221A700C4B002283
:101AB0001A70E0E710490B480B00020023CA23C349
:101AC00023CA23C323CA23C303CA03C3FFF794FC57
:101AD000034A137801331370CDE7C0466A2B002008
:101AE0008A2B0020B4280020501B0020801B0020DF
:101AF0004A2B0020482B0020B01B002070B50400AA
:101B00000D000F2803D883002749CB589F46012496
:101B1000264E2AE00424264E27E00124254E24E008
:101B20000124254E21E00124244E1EE00124244EF0
:101B30001BE00124234E18E00124234E15E001246C
:101B4000224E12E00124224E0FE00124214E0CE02F
:101B50000124214E09E00124204E06E00124204EFC
:101B600003E001241F4E00E01F4E002A12D02B007C
:101B70001E4A21003000FFF7B5FE2B001C4A210051
:101B80003000FFF7AFFE2B001A4A21003000FFF7AC
:101B9000A9FE70BD2B00164A21003000FFF7A2FEFF
:101BA000FFF72AFCF5E7C046ACF9001030FA001048
:101BB00010FA001020FA00100CFA001014FA0010AD
:101BC00028FA001038FA001034FA001004FA001055
:101BD00008FA001018FA00103CFA00102CFA001055
:101BE00040FA001024FA00101CFA0010841B002098
:101BF000B01B0020501B002070B50C4B1968402210
:101C00000B480AF025F900240CE0A300084DED185C
:101C10002800FFF7A5FC296800222000FFF76EFFCF
:101C20000134E4B20F2CF0D970BDC046DC1B00209B
:101C3000E01B002010B5024B1860FFF7DDFF10BD60
:101C4000DC1B002010B5074B1B78002B00D010BD0B
:101C50000548FFF7EFFFFFF7CFFB024B01221A7099
:101C6000F5E7C0466C2B002028130020144AF0230F
:101C70005B00D35C834209D0002B03D1E133FF33F7
:101C80000521D1540E4AF0235B00D0540C4AF023B6
:101C90005B00D25C0B4B1A700B4B1B78052B0AD0E8
:101CA0000A4B15221A80094B1A88094B1A80094BD6
:101CB00000221A707047084B1A88044B1A80F2E70A
:101CC00080120020BB0E00206B2B00204C2B00202C
:101CD000482B00206C2B00204E2B002010B5054B0C
:101CE00018604908044C2000FFF7EAFB034B1C6016
:101CF00010BDC046801B0020651A00104C1B002040
:101D000070B582B004000D00254B1B78002B0CD061
:101D1000244B1C700023244A1370244A1370052C92
:101D200016D8A400224B1B599F46224E2249300050
:101D30000BF0BEF80200002300931C33002130009A
:101D4000FFF7B0FA164B01221A70FFF7E5FCDFE748
:101D50001A4B1B4A1A601B4AF0235B00D05CFFF74A
:101D600085FF002D15DA02B070BD144B164A1A60BB
:101D7000F1E7124B154A1A60EDE7104B144A1A604E
:101D8000E9E70E4B134A1A60E5E70C4B124A1A605A
:101D9000E1E7FF2D00DDFF25E8B2FFF7BDFDE2E73B
:101DA0006E2B00206B2B00206C2B0020702B002052
:101DB000ECF900100000205044FA0010481B0020ED
:101DC000451C0010801200205D1900108D160010B7
:101DD000191A0010911900100514001010B5FF29F0
:101DE00003DC002902DA152100E0FF21044B1980F1
:101DF000044B186064210520FFF782FF10BDC04628
:101E00004E2B00207C1B002010B5144A144900F012
:101E10008EF8002800D110BDFFF7FAFC002803D18E
:101E2000104B1B78002BF6D00F4B1B68002B0ED0ED
:101E300098470028EFD000240B4B1C600B4AF0237E
:101E40005B00D05CFFF712FF094B1C70E3E7094B06
:101E50001B68002BDFD09847DDE7C046E027002055
:101E60001A410000702B00204C1B00208012002023
:101E70006C2B0020481B0020704710B50020FEF797
:101E8000ACFAFEF78FFC10BD10B582B00400104B09
:101E9000188023280DD8C0B20538C0B27F2318405F
:101EA000002C00D1852001AB04221A70587002B0BA
:101EB00010BDAF235B00984207D828380A2108F0EC
:101EC00083FAC0B21F30C0B2E8E7AF204000F4E7A9
:101ED000542B0020642070477047000010B5024862
:101EE0000AF0ECF8012010BD54FA0010072804D8BD
:101EF0008000024B9C466044016070470C800540A6
:101F000010B5072802D90024200010BD8000044B22
:101F10009C466044046800210520FFF7E7FFF3E7D3
:101F20000C80054010B50520FFF7EAFF10BD1060DA
:101F30005368834205D9C31A013B8B4205D2002066
:101F40007047834204D2C31AF7E750600120F7E7D5
:101F50000020F5E730B51860002A0BD15C68844298
:101F60000BD9041B013C0025002D0BD1A14209D93E
:101F7000100030BD58600020FBE7844205D2041BEE
:101F80000025F1E758600120F3E71000F1E70000B9
:101F900010B5FFF729F9022801D0024810BD024808
:101FA000FCE7C0468CFA00107CFB001010B5002046
:101FB0000CF0C2FB10BD000010B5102106480DF05A
:101FC0005FFC002800D110BD044B01221A700248AA
:101FD0000DF026FCF7E7C046281100207B2B0020DF
:101FE00010B5102106480DF04BFC002800D110BDA3
:101FF000044B00221A7002480DF012FCF7E7C046AD
:10200000281100207B2B002070B5050064210D48AD
:102010000DF0F6FB041E09D10B4B22000B492800E2
:10202000FFF798FF051E08D1200070BD084B1C78F3
:10203000E4B204480DF0F4FBEEE7FFF7BDFF2C001F
:10204000F2E7C04628110020F0280020A0860100F9
:102050007B2B0020037801330370044B1B785BB2A9
:10206000022B01D0024870470248FCE77C0F002099
:10207000C0FC0010F8FD00100C4B18600C4B98428F
:102080000BD00C4B98420CD0FA235B00984200D046
:102090007047094B01221A60FAE7074B04221A60C5
:1020A000F6E7054B08221A60F2E7C046441D0020FF
:1020B000461000008D2000003C1D002010B50400DB
:1020C000002001F0C7FF022C2CD0062C1DD0012CC3
:1020D00010D0012001F0BEFF1848FFF7CDFF184BCC
:1020E000184A1A60184B194A1A60194B1C700CF0E8
:1020F0002FFF10BDFA204000FFF7BEFF104B154A1E
:102100001A60114B144A1A60EFE7012001F0A2FF98
:102110001248FFF7B1FF0A4B114A1A600A4B0B4AEB
:102120001A60E2E7FA204000FFF7A6FF044B0D4AD1
:102130001A60054B0C4A1A60D7E7C0468D20000094
:10214000401D00208D610010481D0020AD1F0010B3
:102150007C0F0020816C0010092800104610000040
:10216000096E0010295D0010952C0010F8B50600CE
:102170000C0015000120002140420BF051FE234BC2
:102180009F6C234B1B68BB421CD2FB1A214A12686E
:102190009A4202D8204B01221A70204B1968204A1B
:1021A0003000FFF7C4FE002802D01E4B01221A7037
:1021B0001D4B1B78002B0AD11C4B1B6898471A4BF0
:1021C0001870F8BDFB1A1A4A94466344DEE73000E3
:1021D000FFF71AFF0028F4D00F4B1B78002BF0D02C
:1021E000104B1B78002BECD0094B1F6000230A4AD0
:1021F00013700C4A13700C4A1370FFF7F1FE0D4B6D
:102200001B68290020009847DBE7C04600001150FA
:10221000DC2300203C1D0020862B0020441D0020D4
:10222000402B00208D2B00207C2B0020481D0020FF
:10223000FF070000401D0020084B1B785BB2022BFB
:1022400007D0062B07D0012B01D005487047054861
:10225000FCE70548FAE70548F8E7C0467C0F002090
:102260000804011008FD0010E4FD0010840C0110AA
:10227000084B1B785BB2022B07D0062B07D0012B33
:1022800001D0054870470548FCE70548FAE70548CE
:10229000F8E7C0467C0F0020C8030110D8FC0010EE
:1022A000B8FD0010580C01100020704710B5134BFA
:1022B0001B785BB2022B13D0062B18D0002B05D055
:1022C0000B78002B0FD1FFF777FE0CE00B78302B4B
:1022D00003D0212B01D0812B05D1FFF76DFE02E049
:1022E0000B78212B00D010BDFFF766FEFBE70B78C3
:1022F000012BF8D1FFF760FEF5E7C0467C0F002008
:1023000070B504AC25882E4C247864B2012C2DD0F5
:10231000022C12D0002C00D070BD0029FCD1002A64
:10232000FAD11878102804D02A00190001F0ACF86E
:10233000F2E7981C00F0D8FDEEE70029ECD1002A66
:10234000EAD11A78112A05D0132AE5D11D4809F0DF
:10235000E5FEE1E75B78002B06D01B490B1C1B4A0E
:102360001B48FEF7E5F9D7E70021F7E70029D3D1AD
:10237000002AD1D11A78002ACED15A78082ACBD196
:10238000DA78002A02D11979002911D01B79101CA2
:102390009A4200D2181CC0B209F0A5FB0D4909F001
:1023A00038FB011C031C094A0948FEF7C1F9B3E7D1
:1023B0000020031C021C011CFEF7BAF9ACE7C04662
:1023C0007C0F002040FC00106666263F0000204283
:1023D0000000F04200007F43064B1B785BB2022BEB
:1023E00003D0062B03D1044870470448FCE7044897
:1023F000FAE7C0467C0F0020980C01104CFD00103D
:102400001C04011070B5EE2824D0002825D08000CF
:102410001E4BC55828000DF0C1F9C0B21F2800D9C5
:102420001F20002327E05A1C194CA15C0902E25C22
:102430000A4344001749625202330130112BF2D98A
:10244000154A144B13CB13C211001A680A609B88FB
:102450008B8019E000200023F0E70C4B1968022262
:102460000E4809F0F5FC012007E05A1CEC5C510015
:10247000094BCC52D3B29842F7D801304000C02368
:102480009B001843044B1880034870BDA00E002029
:1024900084FC00109C140020C8170020CA170020DC
:1024A00000B591B04022694600200CF0D3FB00201B
:1024B0000CF0E6FB064B1B785BB2002B01D011B091
:1024C00000BD044809F0FAFD684603F0F9FFF6E79D
:1024D0007C0F002058FC0010F0B583B005001400FC
:1024E000012966D113785B069B0F012B58D0022B74
:1024F00003D0002B01D000205CE06378022B24D0B5
:10250000072B03D0012B19D0002053E022796379E7
:102510001B021343042B03D0052B08D0002049E0F5
:102520002433264A210028000BF09EFD42E08D3323
:10253000234A210028000BF097FD3BE02723214A86
:10254000210028000BF090FD34E0227963791B0212
:102550001343072B30D11C4B1B785BB2022B0FD0DF
:102560006B469F1D194E02223100380009F070FCA5
:102570003B883200083A210028000BF075FD19E075
:102580006B469F1D124E02223100380009F060FC9C
:102590003B883200083A210028000BF065FD09E075
:1025A00051780C4809F0BAFD210028000BF040FDDD
:1025B00000E0012003B0F0BD0020FBE7540F002035
:1025C000C00E002098FC00107C0F0020D0FA0010F4
:1025D000A8FB001070FC0010012815D0022907D0BC
:1025E00000290BD1022A29D0002A29D006207047C1
:1025F000022A1FD0002A1FD00800F8E7022A21D0A3
:10260000002A21D00820F2E7022907D000290BD1A7
:10261000022A1FD0002A1FD00720E8E7022A15D07F
:10262000002A15D00320E2E7022AE0D0002A15D0C4
:102630000020DCE70120DAE70320D8E70720D6E70F
:102640000520D4E70020D2E70420D0E71000CEE731
:102650000420CCE70820CAE70620C8E70520C6E723
:102660000120704710B584220021024809F0EAFBDE
:1026700010BDC0466821002010B50020FFF7F2FF12
:1026800010BD0000F0B5C64600B580460D008B7940
:102690005D2B24D10B79DF00FF1ABFB21937BFB20F
:1026A000974221D80C780C19002605E0104A537087
:1026B0000136F6B22378E4182B79B34210D9637847
:1026C000052BF7D1210040460BF0D8F800280DD09B
:1026D000A378DA09012AE9D0054A9370E8E70027D0
:1026E000380080BCB846F0BD0027F9E70027F7E7BF
:1026F0006821002030B583B0040014484078884237
:1027000006D0124A92788A420CD0012003B030BD24
:102710000F4A002A18D09AB20E490020FFF7C6FDD2
:102720000120F3E70C4D9BB200932B000022002107
:102730000020FFF7E5FD2B00443B997840232A0059
:1027400020000BF00FF9E1E70120DFE7682100200E
:10275000AD2200106C210020AC21002010B50AF041
:10276000F1FF002803D10023002B08D110BD0AF08F
:10277000F1FF002801D10123F6E70023F4E70B4B1A
:10278000997800200BF02AF90028EFD1074CA178A6
:102790000BF0C0F822004432A178402300200BF057
:1027A000E1F8A17800200BF0C9F8DFE768210020EC
:1027B00070B505000C000AF0CDFF002806D181217C
:1027C00000200BF0A7F8002803D170BD0AF0CAFF63
:1027D000F5E7231C402C00D940239CB2094E22006F
:1027E0002900300009F034FB351F697823003200DE
:1027F00000200BF0B7F8697800200BF09FF8FFF786
:10280000ADFFE2E76C21002010B5104B5C780AF0B8
:1028100099FF002806D10023002B13D0002C09D1EA
:10282000002010E00AF096FF002801D10123F3E711
:102830000023F1E7210000200BF0D0F8002803D19D
:10284000013000E0002010BD0020FCE768210020DE
:1028500010B53C220021024809F0F4FA10BDC04630
:102860004818002010B50020FFF7F2FF10BD00004F
:10287000F0B583B006000F001500FEF7B5FC022886
:102880004CD13B79DC00E41AA4B21234A4B2AC42BD
:1028900048D80023002B09D00025002D44D03978DA
:1028A00079184B78212B11D0002438E01A01D21A64
:1028B00092001F4882185278002A02D00133DBB2FE
:1028C000E8E71A01D11A89004518E6E7A9630B78F1
:1028D000C9183A796B1C0193AB1C00930323300099
:1028E0000AF0E6FF002821D0BB79012B13D0012389
:1028F0002B71BB782B70AA6BD179137A1B020B4317
:10290000EB80A97800290AD02A0030320623300053
:102910000BF028F803E0FB79EB70E8E700242000D7
:1029200003B0F0BD0024FAE70024F8E70024F6E73E
:102930004818002070B582B005001D4C002000280A
:102940000AD0002830D162788A4213D0A2788A4215
:102950001AD0012002B070BD0401241AA400144A48
:102960001419A2788A42ECD062788A42E9D0013008
:10297000C0B2E4E70F4A002A18D0210008319AB209
:10298000FFF794FC0120E5E7260030369BB2009368
:10299000330000220021FFF7B3FCA17806233200A8
:1029A00028000AF0DFFFD5E70020D3E70120D1E7B8
:1029B00048180020AD220010F0B5C64600B582B020
:1029C0000600150012781F231340012B00D01FE1D1
:1029D00028790024002C0DD0FF24002C00D01CE10D
:1029E0002700602318001040134239D101290BD071
:1029F00001200EE123011B1B9B008E4FDB5D9842E3
:102A0000EBD00134E4B2E5E7EA786B78062B06D028
:102A1000062B00D005E1222A12D00020F9E0212A5D
:102A2000F6D123011F1BBF00824BDF19BA6B002AAE
:102A300000D1F4E01378290030000BF015FBE8E03A
:102A40002000FFF7C9FC02003B01DF1BBF00794BF0
:102A5000DF19FB88290030000BF006FB0120D8E0CD
:102A6000202800D0DFE06B780B2B00D9DDE09B0045
:102A7000714AD3589F46012901D00120C9E0EA7864
:102A8000A97823011B1B9B0008336A4FFF18A87904
:102A9000EB791B020343181C252B00D9252080B29B
:102AA000002909D0012B16D97B1C9C4639700138AE
:102AB00080B20123984602E0BC460023984600906D
:102AC00063462000FFF7F0FB030043449BB2002B5A
:102AD00005D100209DE0BC4600239846EFE73A0070
:102AE000290030000BF0C0FA012092E0012903D048
:102AF000032915D001208CE0AA79EB791B0213433E
:102B0000062B01D9002084E02201121B92003032F2
:102B100048498A18290030000BF0A6FA012078E015
:102B2000EA78A97823011B1B9B0030334148C31866
:102B3000AE79E87900023043051C062800D9062545
:102B4000ADB2002904D0012802D91878884205D0F6
:102B500000952000FFF7D4FB01205AE00133013D2E
:102B6000ADB2F5E7012901D0012052E0E978230157
:102B70001F1BBF002F4BDF197971304B002B04D086
:102B8000200000E000BF002843D0290030000BF0F7
:102B90004FFA01203DE0012901D0012039E0220156
:102BA000171BBF00234AD219053201232900300028
:102BB0000BF05AFA01202CE0012901D0012028E075
:102BC0002201171BBF001B4AD2190432012329001E
:102BD00030000BF049FA01201BE0012903D0032942
:102BE00007D0012015E0290030000BF021FA012068
:102BF0000FE0A97823011F1BBF000E4BDF193971AD
:102C00000F4B002B13D0200000E000BF012000E09C
:102C1000002002B080BCB846F0BD0020F9E70020DB
:102C2000F7E70020F5E70020F3E70020F1E70120B7
:102C3000EFE7C046481800201CFD0010000000000F
:102C40000000000010B50301181A8000104B18187E
:102C500044780AF077FD002806D10023002B13D01A
:102C6000002C09D1002010E00AF074FD002801D1E9
:102C70000123F3E70023F1E7210000200AF0AEFE74
:102C8000002803D1013000E0002010BD0020FCE747
:102C90004818002010B50020FFF7D4FF10BD000039
:102CA000F8B504000F0016001D0003011B1A9B005D
:102CB0001F4AD318597800200AF02CFE002825D08E
:102CC000002F24D02B1C242D00D924239DB2184A78
:102CD0002301191B890051180F721B1B9B0008331D
:102CE000D01801302A00310009F0B2F80135ADB238
:102CF0000F4B2001021B920008329A18001B800023
:102D0000181841782B0000200AF02CFEF8BD2B1C6F
:102D1000252D00D925239DB22001001B80000830FD
:102D2000034B18182A00310009F092F8E0E7C0467A
:102D30004818002010B513000A0001000020FFF71A
:102D4000AFFF10BD107003120F20184050700B0120
:102D500018435070091191707047000070B5124D02
:102D6000802424012A0021002000FFF7EBFFEA1C49
:102D700021002000FFF7E6FFAA1D21002000FFF739
:102D8000E1FF2A00093221002000FFF7DBFF2A00C3
:102D90000C3221002000FFF7D5FF2A000F3221005E
:102DA0002000FFF7CFFF70BD142B002010B540228C
:102DB0000021024809F046F810BDC046801C0020E2
:102DC000014B18707047C046762B0020014B1873DA
:102DD0007047C046801C0020014B58737047C046A6
:102DE000801C0020074A0021535E107806490870B5
:102DF000023399B21BB21380FF2B01DDFF39118022
:102E00007047C046522B0020801C0020024B1A78CD
:102E1000024B5A707047C04668FF0010801C0020AB
:102E2000064B04229A732F32DA73303A1A74013A3D
:102E30005A74012119765A767047C046801C0020CA
:102E400010B5C4B2000A002307E019000E31044A8D
:102E50005454013150540233DBB20D2BF5D910BD5F
:102E6000801C002010B503007F2800D97F2080B28D
:102E7000002B08D008F037FE044908F0E0FD0449B3
:102E800008F0C2FD10BD0248FCE7C046BA66934098
:102E90000000204210B503007F2800D97F2080B2B7
:102EA000002B08D008F01FFE044908F0C8FD0449B3
:102EB00008F0AAFD10BD0248FCE7C046C5661341F4
:102EC0000000A04210B503007F2800D97F2080B207
:102ED000002B05D008F007FE024908F09AFD10BD4E
:102EE0000020FCE70000FE42F8B5CE46474680B51C
:102EF0000300C1788A0937D0012A17D0022A07D0E7
:102F00000026371C0023994698460025002447E0F8
:102F10004178090202780A439205940D002A23D1D0
:102F2000A146A04625000026371C39E0807804021F
:102F30005E78320022431205140D002A67D01B78F8
:102F40009A074ED17F220240904649007E252940B3
:102F5000C5090D43F201FF2414409B081C4373086C
:102F600099460026371C1BE01C78E2073DD5640813
:102F70005A78D1007820084081469978C900082500
:102F80000D4052091543ED00254E002700229046C2
:102F90005A78D20601D5002291469B789B073CD4F3
:102FA0000021381C08F07CFD002803D02000FFF72A
:102FB00071FF071C0021301C08F072FD002803D0AF
:102FC0004046FFF74FFF061C4846FFF77BFF041CF7
:102FD0002800FFF777FF031C321C211C381CFDF76B
:102FE000A7FBC0BCB946B046F8BD620890465A7807
:102FF000D1007820084081469978C90008250D4005
:1030000052091543ED000026064F0024C0E7A146F3
:10301000A04625000026371CC2E70025C0E7C046B1
:10302000000020430000A0430A4B01221A70002236
:103030005A7003329A70084A117AD970D17919718D
:1030400091795971517999711179D971D2781A722E
:103050007047C046801C00208012002010B504007C
:10306000FFF7A4FE8120FFF7ABFE012C09D0064B31
:103070001C70064B19784023034A00200BF084FB98
:1030800010BDFFF7D1FFF4E7801C0020762B002055
:1030900070B586B06C462A4B0433220070CB70C2E8
:1030A00070CB70C2022837D0032841D000230025FE
:1030B00000E00133052B10D8224AD2187D32FF32AE
:1030C00014780522D21A885C8442F2D01D4AD218A4
:1030D0007D32FF3210700125EBE7002D19D18120E0
:1030E000FFF774FE184801238373164B1A7AC273D4
:1030F000DA7902749A7942745A7982741A79C274AC
:10310000DB78037515301822694608F0A1FE06B079
:1031100070BDFDF783FFE2E78120FFF757FE0A4805
:10312000022383730F301022084908F091FEEEE766
:103130008120FFF74BFE044B03229A73E7E7C0465A
:1031400068FF001080120020801C0020001D00205D
:1031500070B504000E001500FFF728FE2120FFF7D0
:103160002FFEFFF73FFEFFF751FE2000FFF734FE72
:10317000482C67D8A4003E4B1B599F468020FFF780
:1031800025FE00236AE0F07A431E9841C0B200F0A9
:1031900061FFF27A374B1A708020FFF717FEF0E7D5
:1031A00031000C31F07AFFF773FFEAE78020FFF778
:1031B0000DFEF27A304B1A70E3E78220FFF706FE2D
:1031C000FFF72EFEDDE78020FFF700FED9E7902015
:1031D000FFF7FCFDF27BF17A307B00F037FAD0E7A5
:1031E000FEF74BFECDE78020FFF7F0FDC9E7832017
:1031F000FFF7ECFD6420FFF723FEC2E78020FFF716
:10320000E5FDBEE78020FFF7E1FDF27A0F231340D2
:10321000033BDAB20C2A03D89300184AD3589F46CE
:103220000120FEF7E7FAACE70320FAE70420F8E70D
:103230000520F6E70620F4E70720F2E70820F0E78C
:103240000220EEE70023AB4202D201339BB2FAE741
:103250008020FFF7BBFD94E70133DBB21F2BFBD9C6
:103260004023074A212100200BF08EFA70BDC04692
:1032700010FE0010772B0020800F002034FF00107C
:10328000801C002070B50C00150010280DD080287F
:103290000FD0012800D070BD881CFFF725FEA07A52
:1032A0002A002100FFF754FFF5E7881CFFF71CFEFA
:1032B000F1E74878FFF7D2FEEDE70000094B1B78F5
:1032C0000A2B07D00B2B09D0064B0A221A70054B8C
:1032D00018787047034B0B221A70F8E7014B0C2249
:1032E0001A70F4E7810F002070B504005D4B1B7865
:1032F000002B04D15C4B1B78302B0BD070BD5B4B8B
:103300001A885B4B18785B49FFF7BCFF554B0022CE
:103310001A70F3E7FFF74AFD3020FFF751FDFFF782
:1033200061FDFFF773FD544B1B78012B2DD0022B51
:1033300000D18AE02378514DAB706378EB70A378AD
:103340002B71E3786B7123790F210B40AB7160799E
:10335000A3791B0203431B11EB71E3792B72237AD0
:1033600019406972617AA37A1B020B431B11AB727D
:10337000FFF7A4FFE872424B197840232A0000208F
:103380000BF002FA02F0BAF9B8E700F007FD837813
:103390003A4D2B73C3786B730378AB734378EB733D
:1033A00003792B7443796B74037AAB74437AEB74AF
:1033B00083792B75C3796B75837AAB75C37AEB759B
:1033C00000F0ECFC83782B76C3786B760378AB76D1
:1033D0004378EB7603792B7743796B77037AAB7776
:1033E000437AEB7782792023EA54C2790133EA5495
:1033F000827A0133EA54C27A0133EA5400F0CEFCF7
:1034000082782423EA54C2780133EA5402780133E3
:10341000EA5442780133EA5402790133EA5442799A
:103420000133EA54027A0133EA54427A0133EA540E
:1034300082790133EA54C2790133EA54827A013342
:10344000EA54C27A0133EA5474E70E4D280000F0C2
:1034500025F90A4B0C3307CD07C307CD07C307CDAA
:1034600007C367E7782B0020800F00207E0F002025
:10347000792B0020C01C0020772B0020801C00200E
:10348000762B00203028002010B5054B01241C703D
:10349000044B1870044B1A80044808F0D9FC10BD86
:1034A000782B0020792B00207E0F0020C01C0020EC
:1034B00010B5024B181808F0CBFC10BD801C002082
:1034C000502800D1B0E003D960282FD0FF2010E0B1
:1034D000402800D9AAE0202805D34B2924D88B0006
:1034E000564AD3589F46002803D0102800D09FE0AA
:1034F000002070479520FCE70020FAE72A39504B5E
:1035000059187D31FF310878F3E704394C4B5918CD
:103510007D31FF310878ECE70020EAE70020E8E79A
:103520006820E6E70020E4E70020E2E7A92979D84F
:103530008B00444AD3589F46FF20DAE70220D8E7A1
:103540000120D6E72320D4E70020D2E7B920D0E736
:103550001A20CEE70120CCE70020CAE74020C8E7C8
:103560000020C6E74020C4E70020C2E74020C0E7B3
:103570000120BEE70020BCE70120BAE70020B8E741
:103580000120B6E70020B4E73B20B2E73420B0E7E3
:103590003B20AEE73420ACE73B20AAE73420A8E785
:1035A0003D39294B585CA4E73D39274B585CA0E7CF
:1035B0001A209EE71A209CE71A209AE75E2098E7D7
:1035C000012096E7502094E7FD2092E7002090E745
:1035D00000208EE7C6208CE70F208AE70F2088E7BF
:1035E000302086E7612084E7AE2082E7902080E7E4
:1035F000D9207EE7D4207CE714207AE7542078E7AE
:10360000412076E7152074E7542072E7C72070E761
:1036100079206EE79C206CE733206AE7362068E764
:10362000632066E7002064E7002062E7FF2060E790
:10363000FF205EE722205CE703205AE784FF0010AA
:1036400080120020B4000110142B0020F0B58BB0C4
:1036500006000F00150008A90F70487000248C7038
:10366000CC700A7105220E20FFF722FF00941A2267
:10367000002101A808F0E6FB07E03919C9B23000C3
:10368000FFF71EFF6B4618550134A542F5DC2A00F2
:1036900069461320FFF70CFF0BB0F0BDF0B5DE4616
:1036A00057464E464546E0B585B00400837903226F
:1036B00093430222134383710125002601E0013563
:1036C000EDB2032D0CD8724BAA00D058B200D158DD
:1036D0004900490808F002FA0028F0D02E00EEE771
:1036E000032333409A00A3790C218B431343A37126
:1036F000002509E06749404608F0A1F9AF0008F04D
:1037000019FA01ABD8510135022D15DC72190132BD
:10371000032313405E4F9B00D8599D21C90508F033
:103720008EF98046B300D859002108F0C1F900286D
:10373000E0D1FE218905DEE7019B9B12DB02D90A5D
:103740000F2211400901A07902400A43A271D90B4E
:10375000E171D90D2172DB0F012601210B40607A46
:10376000B04303436372029B9D127F208246054053
:103770006F00657A0D403D4365725B149B049B0CA2
:10378000A3721B0A3F273B40E57A403885432B4311
:10379000E372039B9A12944603250322604610406D
:1037A00080018446E07A074060460743E7721B13B6
:1037B0005B035F0BA774580DE0745B0F0720804616
:1037C00003409B46207D84460720814660464B4649
:1037D00098430300584618432075C3B2404603403F
:1037E000237500236375A375E37D18308343E37568
:1037F000E77D1F233B40E3750023A3772700E37F8A
:10380000AB43E377DBB21340E3771E37BB78B343B8
:10381000BB701F36A35D0B40A35521239C46E35C80
:103820005F36B34360462354194E33691940C901CA
:103830008946205C514601400800494601436046E4
:1038400021545B089B059B0D3B711B0A1340797942
:10385000A9430B437B712323E15C0A400C210A43FB
:10386000E254B38AA3701B0AE370F38A23701B0A25
:103870006370338B23711B0A6371336908333361BF
:1038800005B0F0BCBB46B246A946A046F0BDC04656
:10389000840F0020000080BFF0B5DE4657464E463C
:1038A0004546E0B585B004000D00C3689A46CE6871
:1038B000311C181C08F0C3F8071C236898462B68B5
:1038C0009B46191C404608F0BAF8011C381C08F049
:1038D00096F8071C63686A689146111C0093181CCF
:1038E00008F0ADF8011C381C08F089F80190A768B1
:1038F000AD68291C381C08F0A2F8011C019808F0DA
:103900007EF801905946504608F099F802904146D9
:10391000301C08F094F8011C029808F075F8029029
:10392000291C009808F08BF8011C029808F06CF82C
:103930000290391C484608F082F8011C029808F0F1
:103940005EF802904946504608F079F80390291C29
:10395000404608F074F8011C039808F050F80390F2
:103960000099301C08F06BF8011C039808F04CF823
:103970000390391C584608F062F8011C039808F0BF
:1039800043F80390291C504608F059F8051C494695
:10399000404608F054F8011C281C08F035F8051CB6
:1039A0000099584608F04BF8011C281C08F027F82D
:1039B000051C391C301C08F042F8011C281C08F0BA
:1039C00023F8019BE360029B2360039B6360A0607C
:1039D00005B0F0BCBB46B246A946A046F0BD70B5E6
:1039E00004000168081C08F02AF8051C6168081C1E
:1039F00008F025F8011C281C08F006F8051CA16831
:103A0000081C08F01CF8011C281C07F0FDFF051C11
:103A1000E168081C08F013F8011C281C07F0F4FFEB
:103A200008F0CCF8011CFE20800507F0F2FF051C11
:103A3000011C206808F003F82060291C606807F06A
:103A4000FEFF6060291CA06807F0F9FFA060291C38
:103A5000E06807F0F4FFE06070BD0000F0B5DE46FE
:103A600057464E464546E0B58DB08046944A93464B
:103A700000911268881A08F036F8041C4246127A3F
:103A80004146487A000210430004001408F030F860
:103A90008C4907F0D4FF8C4907F0BBFF08F084F88D
:103AA0008A4A8B4B06F02FFF00228A4B06F00DFF4F
:103AB0000022894B06F009FF06000F00201C08F0C9
:103AC00073F804000D0002000B003000390006F00E
:103AD0001AFF06F0DDFF8246424692794146C879D8
:103AE000000210430004001408F002F8754907F0C2
:103AF000A6FF754907F08DFF08F056F8734A744B1E
:103B000006F001FF0022734B06F0DFFE0022724B2D
:103B100006F0DBFE02000B002000290006F0F3FE99
:103B200006F0B6FF81464246927A4146C87A0002C4
:103B300010430004001407F0DBFF624907F07FFF29
:103B4000614907F066FF08F02FF8604A604B06F005
:103B5000DAFE00225F4B06F0B8FE00225E4B06F054
:103B6000B4FE02000B002000290006F0CCFE06F097
:103B70008FFF051C5146504607F061FF041C494663
:103B8000484607F05CFF011C201C07F03DFF041CA9
:103B9000291C0195281C07F052FF011C201C07F06E
:103BA00033FF08F001F804000D0002000B0006F0DE
:103BB000AAFE06000F000022484B0296039706F06B
:103BC00084FE06000F000022454B2000290006F06D
:103BD0007CFE02000B003000390006F064FE00227B
:103BE000404B06F069FE06000F0000223E4B029893
:103BF000039906F06AFE029003910022FF239B05C1
:103C00002000290006F07FFE02000B0002980399B5
:103C100006F049FE0022354B06F04EFE04000D0072
:103C20001C22002105A808F00DF9504607F0BCFF42
:103C300032003B0006F067FE06F02AFF059048467A
:103C400007F0B2FF32003B0006F05DFE06F020FFF9
:103C50000690019807F0A8FF32003B0006F053FEE3
:103C600006F016FF07902000290006F011FF0890CB
:103C70001F4C05A92000FFF70FFE2000FFF7AFFE45
:103C80004246117853781B020B431B041B14A3827A
:103C90009178D3781B020B431B041B14E382117928
:103CA00053791B020B431B041B1423835A46009BAE
:103CB00013600DB0F0BCBB46B246A946A046F0BDAD
:103CC000A82800200000FA4400FEFF46182D4454A6
:103CD000FB2109400080664080842E410000AE40F8
:103CE000000048400000E03F000078400000F03F46
:103CF000840F0020F0B5C64600B50400884623496D
:103D000023480BF0ADFD0028F9D0224E3368581C33
:103D1000032106F059FB2578627812021E4F4800F5
:103D2000401883005B182A43FA54120AFB185A7091
:103D3000A078E278120202439A70120ADA702079AF
:103D40006279120202431A71120A5A71A079E27959
:103D5000120202439A71120ADA71207A627A12020E
:103D600002431A72120A5A72A07AE27A12020243CB
:103D70009A72120ADA72316041462000FFF76EFE35
:103D800003480BF04DFD80BCB846F0BD001A002082
:103D900030110020FC190020D419002010B5094969
:103DA00009480BF05DFD0028F9D0084B1C68064857
:103DB0000BF036FD6000001980000019044B181844
:103DC00010BDC046041A002030110020FC1900204C
:103DD000D41900204118CB0F5B185B1080225202CF
:103DE000914204DA044A914203DB18B27047034857
:103DF000FCE70348FAE7C046FFFFFEFFFF7F000035
:103E00000080FFFF70B5012149422848FDF7E6FF19
:103E1000274D06220021280008F014F8A81D0622CC
:103E2000002108F00FF8234B01221A70224BFA22CE
:103E300092011A60214B00221A70214E214C310050
:103E40002000FCF772FC0023E25E9C3D9C23EA54B8
:103E50000223E25E9D23EA540423E25E9E23EA5499
:103E60000623E25E9F23EA540823E25EA023EA547D
:103E70000A23E25EA123EA540023F25EA223EA545D
:103E80000223F25EA323EA540423F25EA423EA543D
:103E90000623F25EA523EA540823F25EA623EA5421
:103EA0000A23F25EA723EA5470BDC0460000FFFF5C
:103EB0001C130020642B0020D0190020652B00204B
:103EC000C0190020A019002010B5084AE2235B00A9
:103ED000D05C01214942FDF713FFFDF799F8FDF78A
:103EE0009DF8034B00221A7010BDC04680120020BE
:103EF000642B0020F8B552495248FCF716FC524B8F
:103F00001B78002B00D160E0504C9C254D4E0023C7
:103F1000F15E6057FFF75EFF605501350223F15EE9
:103F20006057FFF757FF605501350423F15E605776
:103F3000FFF750FF605501350623F15E6057FFF72C
:103F400049FF605501350823F15E6057FFF742FFD6
:103F5000605501350A23F15E6057FFF73BFF60555E
:103F6000A227374D0023E95EE057FFF733FFE05506
:103F700001370223E95EE057FFF72CFFE0550137D8
:103F80000423E95EE057FFF725FFE05501370623DC
:103F9000E95EE057FFF71EFFE05501370823E95EB1
:103FA000E057FFF717FFE05501370A23E95EE057B6
:103FB000FFF710FFE055002333732B73244A136877
:103FC000013B1360002B37D0F8BD1E4A0023D05EA2
:103FD0001E4B9C2158540221505E9D2158540421AF
:103FE000505E9E2158540621505E9F21585408214E
:103FF000505EA02158540A21515EA1229954104AC2
:104000000021505EA22158540221505EA321585431
:104010000421505EA42158540621505EA521585415
:104020000821505EA62158540A21515EA7229954B6
:10403000054BA63A1A70C7E7FFF746FFC4E7C0462C
:10404000C0190020A0190020652B0020801200203C
:10405000D0190020014B18707047C046662B002015
:10406000F0B5C64600B504004C4B1B78002B06D1BA
:104070004B4B1B78002B05D180BCB846F0BDFFF739
:1040800039FFF9E7FA21474A8900FDF750FF002878
:10409000F2D0454D29004548FCF747FB2B7B002B10
:1040A00003D0424B1B7B002B0AD1404B1B7B002BC8
:1040B00000D06EE000233D4A13733B4A1373DBE7E5
:1040C0003A4B984618883A4D9C23EB569BB2C01A3F
:1040D000354F3988A223EB569BB2C91A09B200B2F8
:1040E000FFF778FE334E3080434658889D23EB56C9
:1040F0009BB2C01A7988A323EB569BB2C91A09B2A6
:1041000000B2FFF767FE7080434698889E23EB5607
:104110009BB2C01AB988A423EB569BB2C91A09B244
:1041200000B2FFF757FEB0804346D8889F23EB5676
:104130009BB2C01AF988A523EB569BB2C91A09B2E3
:1041400000B2FFF747FEF08043461889A023EB56E4
:104150009BB2C01A3989A623EB569BB2C91A09B281
:1041600000B2FFF737FE308143465889A123EB5652
:104170009BB2C01A7989A723EB569BB2C91A09B220
:1041800000B2FFF727FE708121003000FFF7B2FD7B
:1041900090E721000548FFF7ADFD8BE7642B002079
:1041A000662B0020E8270020C0190020A01900205D
:1041B00080120020B019002004281ED00CDC012839
:1041C00016D000280FDD0238C0B201280BD80D4BE5
:1041D0000B60083313600AE0052804D10A4B0B601A
:1041E0000833136003E0094B0B600833136070471A
:1041F000074B0B6008331360F9E7064B0B6008337D
:104200001360F4E7C8130020E8130020A81300206F
:10421000B8130020D813002030B50F220D780F23DB
:104220001D40047894432C4304704C781C402501B5
:1042300004781C402C4304708D781D4044789443CE
:104240002C434470CC781C40250144781C402C43FE
:1042500044700D791D40847894432C4384704C79CC
:104260001C40250184781C402C4384708D791D40AE
:10427000C47894432C43C470CC791C402501C47885
:104280001C402C43C4700D7A1D40047994432C4388
:1042900004714C7A1C40250104791C402C430471A4
:1042A0008D7A1D40447994432C434471CC7A1C4050
:1042B000250144791C402C4344710D7B1D408479B9
:1042C00094432C4384714C7B1C40250184791C4011
:1042D0002C4384718D7B1D40C479944322002A4372
:1042E000C271CA7B1A401201C1790B401343C371DA
:1042F00030BD0B781B071B0F03700B781B09437035
:104300004B781B071B0F83704B781B09C3708B788E
:104310001B071B0F03718B781B094371CB781B079D
:104320001B0F8371CB781B09C3710B791B071B0F04
:1043300003720B791B0943724B791B071B0F8372A6
:104340004B791B09C3728B791B071B0F03738B7986
:104350001B094373CB791B071B0F8373CB791B0995
:10436000C373704770B50400144D154A2900FFF758
:1043700023FF2B68134A1168526819605A60042C95
:1043800012D0052C15D0032C09D00D4B1B68002230
:104390001A800A4B19680C48FFF7ABFF70BD084B39
:1043A0001B680A4A1A80F4E7054B1B68084A1A8002
:1043B000EFE7034B1B68074A1A80EAE7441B00201B
:1043C000381D0020A0030110281B002000E1FFFF82
:1043D00000C0FFFF00CAFFFF10B50E4B19600E4B67
:1043E0001A600E4B18700E4C0E4A2100FFF7E4FEC7
:1043F00021680D4C2000FFF77CFFE37A0B3B5A1E2F
:1044000093410A4A1370637A093B5A1E9341084A42
:10441000137010BD0415002008150020692B002022
:10442000441B0020381D0020281B0020682B002082
:10443000672B0020024ABC235B00D0547047C04663
:104440008012002010B5044B00221A70034B19682B
:104450000348FFF74EFF10BD5C2B0020441B0020DB
:10446000281B002070B590B00500384C384E220053
:104470003100FFF7A1FE31683648FFF73AFFFFF73A
:10448000E1FF002300933C22002101A807F0DAFCA1
:10449000A6236A461370557033681A781207120FF4
:1044A00069468A701A781209CA705A781207120F70
:1044B0000A715A7812094A719A781207120F8A7192
:1044C0009A781209CA71DA781207120F0A72DA782A
:1044D00012094A721A791207120F8A721A7912098E
:1044E000CA725A791207120F0A735A7912094A735B
:1044F0009A791207120F8A739A791209CA73DA79B4
:104500001207120F0A74DB791B094B742268138897
:104510001B0A8B741388CB740F4BBC2252009A5C1D
:104520000A75BD2252009B5C4B75FA20000101F018
:10453000EFFE002801D110B070BD00200AF0D0FBC2
:104540004022694600200AF0ADFBF4E72C1D002054
:10455000281D0020181D00208012002070B50A00C0
:1045600000210F2937D803000B41DB0714D4013198
:10457000C9B2F6E70133DBB20F2B0FD82A4AD05C61
:104580002A4A12789042F5D1294A146801209840AD
:10459000228802432280EDE70023EDE7224C2348E6
:1045A00003786354224B1D6801228A402B88934371
:1045B0002B8002781F4807F0B1FD1F4B00221A70B4
:1045C0001E4B18682100FFF727FE1D4B00201856D0
:1045D000FFF748FF70BD002AFCD0002401E0013441
:1045E000E4B20F2C14D8104B1A5D104B1B789A4272
:1045F000F5D12100134807F091FD0D4B19680122F8
:10460000A2400B8813430B800B4B00221A70E6E785
:104610000A4B18680449FFF7FFFD094B00201856A4
:10462000FFF720FFD6E7C046181D00205B2B0020B7
:104630002C1D00205C0301105C2B0020281D002095
:104640007A2B00207803011070B504000D00084E8D
:10465000084A3100FFF7B0FD31680748FFF749FE0F
:10466000064B1C70064B1D70064B01221A7070BD64
:10467000281D00202C1D0020181D00207A2B002052
:104680005B2B00205C2B002070B5D14B00221A80E0
:104690009A70D04B1B78002B16D0CF4B1A689378AA
:1046A0009B06D90F002B06DA002313705370CA4BF8
:1046B0001B6800229A70C84B1B681A785878000251
:1046C0001043FFF74BFF70BD01F028FB002826D0F8
:1046D000C14B19688A780124A2438A7019688A78C4
:1046E000022082438A7019684A781025AA434A70CA
:1046F00019684A781035AA434A7019680A78A243A3
:104700000A7019680A7882430A7019680A780230B8
:1047100082430A701A68137808218B431370AC4BDC
:1047200000229B5EAD4A12685178C90600D527E188
:10473000A94909684978C906C90FA948007B814081
:1047400009B20B43A2490B805178890600D519E1C3
:10475000A149096849788906C90FA148407B814071
:1047600009B20B439A4C23809B49096888788007DB
:10477000C00F4000A5780226B5432843A070887872
:10478000C007C50FA078013EB0432843A070107841
:10479000C00700D5F8E00878C007C00F904C247817
:1047A000A04000B203438A4803801078800700D5F8
:1047B000ECE008788007C00F894C6478A04000B214
:1047C0000343834803801078400700D5E0E0087871
:1047D0004007C00F824CA478A04000B203437C483D
:1047E00003801078000700D5D4E008780007C00FD8
:1047F0007B4CE478A04000B20343754803801078F6
:10480000C00600D5C8E00878C006C00F744C2479F3
:10481000A04000B203436E4803801078800600D5A4
:10482000BCE008788006C00F6D4C6479A04000B2EF
:104830000343674803801078400600D5B0E008784D
:104840004006C00F664CA479A04000B20343604804
:1048500003801078C00900D0A4E00878C009604C3B
:10486000E479A04000B20343594803805078C00760
:1048700000D599E04878C007C00F594C247AA04071
:1048800000B20343524803805078400700D58DE0C2
:1048900048784007C00F524CA47AA04000B20343AE
:1048A0004B4803805078800700D581E04878800726
:1048B000C00F4B4C647AA04000B2034398B2444C02
:1048C0002080800576D54748414DEC1CE870050AEC
:1048D00065700025A570000EE070507880076BD4DD
:1048E00048788007C00F3E4C647AA04000B2034372
:1048F000374803805078000760D448780007C00F1D
:10490000374CE47AA04000B2034398B2304C208088
:10491000000555D533482E4DEC1DE871050A65702C
:104920000025A570000EE070507800074AD4487842
:104930000007C00F2A4CE47AA04000B20343244889
:104940000380507840063FD448784006C00F244C7E
:10495000A47BA04000B203431D4803805278D209D3
:1049600034D14A78D2091E49C97B8A4012B218490B
:1049700013430B801C4B18680C2207F069FAA2E65F
:104980000021DEE60021ECE600200BE7002017E71F
:10499000002023E700202FE700203BE7002047E727
:1049A000002053E700205EE700206AE7002076E75A
:1049B000002082E7002087E7002098E70020A3E797
:1049C0000020A8E70020B9E70020C4E70022CEE7D6
:1049D000381B00205C2B002004150020381D00200F
:1049E000281B0020FF0F00000815002080231B015A
:1049F000136053609360D3607047000010B50011DE
:104A0000084A1378991C084C60540133DBB21370C8
:104A10003D2B01D8002010BD130000221A70012088
:104A2000F9E7C046632B0020301C002010B50C00B5
:104A3000FA213D4A8900FDF77AFA00281DD03B4B48
:104A40001B78002B12D13A4B1B78002B60D12368C6
:104A50000B3BFF3B374A93422BD9374B1C60344BFF
:104A600001221A70354B00221A7006E0324B1B6887
:104A70001868FFF7C3FF002800D110BD304BA522F6
:104A80001A702E4A12785A70FA20000101F040FC88
:104A9000002805D10023254A1370254A1370ECE73E
:104AA0004022274900200AF0FDF800200AF018F9FA
:104AB000F0E763680B3BFF3B1E4A934208D904347E
:104AC0001D4B1C6001231A4A13701C4A1370D4E753
:104AD000A3680B3BFF3B174A934209D90834164B96
:104AE0001C60134B01221A70144B01321A70C4E778
:104AF000E3680B3BFF3B0F4A9342BED90C340E4B8D
:104B00001C600B4B01221A700C4B02321A70B4E776
:104B1000094B1B681B680B3BFF3B064A9342ACD812
:104B2000024B01221A70A8E7082800205D2B002004
:104B3000602B0020EB0D0000082A0020742B0020C1
:104B4000301C002070B5041C0D000B78002B0AD01F
:104B5000CE68011C301C06F0B9FF002804D068683C
:104B6000211C06F06CFF70BD311C201C06F047FFB5
:104B7000A96806F064FF024906F046FFF3E7C04665
:104B80000000B44170B506F03AFF4000400807F05D
:104B90000BF804000D0002000B000020054905F091
:104BA00082FE02000B00200029000AF079FE05F0C9
:104BB0006FFF70BD0080764070B5061C0C1C151C84
:104BC000111C201C06F07AFF00280FD0311C201C7D
:104BD00006F074FF002807D0311C281C06F076FF71
:104BE000002802D0012000E0002070BD311C201CF4
:104BF00006F064FF002807D1311C281C06F066FF70
:104C0000002803D00120F0E70120EEE70020ECE7C8
:104C1000F8B5071C0E000024002503E0002206E082
:104C20000134E4B2072C0DD8062CF7D8621CA3007F
:104C30009200B258F158381CFFF7BEFF0028EFD0A1
:104C40002500EDE72800F8BD10B506F0ADFF002205
:104C5000104B06F05BF805F01BFF041C002106F06A
:104C600027FF00280FD1201C06F09EFF00220A4BD0
:104C700005F02BFE05F0D0FEC217520F8018072357
:104C80001840801A10BD0549201C06F0BDFE041C0A
:104C9000E9E7C04600807640008046400000B4430B
:104CA00010B506F0B1FE041C0B4906F017FF0028F2
:104CB00006D00949201C06F0A2FE041C201C10BDD1
:104CC0000021201C06F0F4FE0028F7D00249201C29
:104CD00006F09AFE041CF1E70000B44370B5CD1A4B
:104CE000801A06F005FF041C280006F001FF211CB5
:104CF00006F076FF114906F0A2FE06F055FF104AB5
:104D0000104B05F0E2FD05F0C3FE041C002106F087
:104D1000CFFE00280BD10C49201C06F0D7FE00283E
:104D20000AD00949201C06F06AFE041C04E006496A
:104D3000201C06F069FE041C201C70BD00003443DA
:104D4000182D4454FB2109400000B443F8B50C0071
:104D500017001E0006F0CCFE051C380006F0C8FE49
:104D6000011C281C06F04BFE051C200006F0C0FEAE
:104D7000041C300006F0BCFE011C201C06F03FFEA7
:104D8000041C291C281C06F05AFE051C211C201C92
:104D900006F055FE011C281C06F036FE06F00EFF3C
:104DA000F8BD0000F8B50F00160006F0FDFE0B4A36
:104DB0000B4B05F0A8FD05F06BFE06F0F5FE0400B8
:104DC0000D0005F07BFE05F063FE38602000290031
:104DD00005F08AFE05F05CFE3060F8BD399D52A2F8
:104DE00046DF913FF0B5DE4657464E464546E0B5B4
:104DF00083B080468B4615001F001100FFF708FFA7
:104E0000040006285CDC461CA3009946EB589A4631
:104E1000B600A959181CFFF7B5FE051C51464046BF
:104E2000FFF7B0FE8046291C06F0F3FD051C4B463B
:104E3000FB589A46011CFE20800506F0E0FD011C8F
:104E4000504606F0FCFD8246B859291C06F0F7FDD5
:104E5000011C504606F0D8FD051C0C9B4A4698588C
:104E6000414606F0ECFD031C22010D9989180D98AE
:104E7000825C002A03D0181CFFF764FE031CA40008
:104E8000304AA058191CFFF70BFF00260196009628
:104E90006A4601A9FFF786FF5946281C06F0CFFD98
:104EA000041C311C06F004FE00280BD18A21C90520
:104EB000201C06F013FE002805D08A24E40502E039
:104EC0000026A1E700240199201C06F0B8FD051C6E
:104ED0000190211C009806F0B2FD00908A21C905BE
:104EE000281C06F091FD06F003FF06F023FE0028C3
:104EF00023DB80235B01984200DB134806F0F8FDBA
:104F00000E9B18608A21C905009806F07DFD06F009
:104F1000EFFE06F00FFE002811DB80235B019842B4
:104F200000DB094806F0E4FD0F9B186003B0F0BCFD
:104F3000BB46B246A946A046F0BD0020E0E70020EF
:104F4000F2E7C046A8030110FF0F0000F8B5070004
:104F50000E00002409E0A500795975198A20C005C2
:104F600006F057FD28600134E4B2072CF3D9F8BDF0
:104F7000F8B505000E0000240DE00023A7009B00FB
:104F8000E958E859FFF7FEFD011C064806F041FD0F
:104F9000F0510134E4B2072C03D8062CEDD8631C81
:104FA000ECE7F8BD00003442F0B5C64600B58046D7
:104FB0000F00002419E02601BE1901233370286870
:104FC000164906F021FD051CF060011C134806F08F
:104FD00020FD7060291C124806F011FD011C0F48CD
:104FE00006F017FDB0600134E4B2072C12D8A5001A
:104FF00045440021286806F053FD0028DBD023013A
:10500000FB1800221A70054ADA60FE2292055A60E7
:105010009A60E8E780BCB846F0BDC0460000B441E5
:10502000000034420A4AD3685B005B1009490B60F8
:1050300053695B005B1008490B6013695B005B10F0
:1050400006490B6093695B005B10054A136070476B
:1050500080120020701C0020781C0020741C00208E
:105060007C1C002010B5054B1B68054A12680549D9
:10507000096805480068FCF783F810BD7C1C002017
:10508000781C0020741C0020701C002010B5104CEF
:1050900010492000FFF76CFF200020300E49FFF779
:1050A00067FF200040300D49FFF750FF20006030BF
:1050B0000B49FFF74BFF20006930FF300949FFF72C
:1050C00073FF20008930FF300749FFF76DFF10BDE7
:1050D0009C120020A00F0020E00F0020C00F002035
:1050E00000100020081A0020981A002010B50E4B5E
:1050F00000221A800D4C20320021200006F0A2FE72
:10510000200020302022002106F09CFE20004038A4
:105110002022002106F096FE2000203820220021C7
:1051200006F090FE10BDC046502B0020DC1200207F
:10513000F0B5DE4657464E464546E0B583B004001E
:105140005F4B9B465F4B9A465B461B685246126814
:1051500041680068FFF7C2FD071C5B4B99465B4D39
:105160001B682A68E168A068FFF7B8FD80460190D7
:10517000574E311C0097381CFFF792FD071C311C5D
:105180004046FFF78DFD061C381CFFF75DFD07004C
:10519000301CFFF759FD06005B461B68524612683B
:1051A00061682068FFF7D2FD82464B461B682A687B
:1051B000E168A068FFF7CAFD8046009806F0F4FC9D
:1051C0000022444B05F0A2FD05F062FC041CFE2108
:1051D000890506F06DFC002805D13F49201C06F02A
:1051E0007DFC002822D03A00163292003B4B9B18DF
:1051F0005868514606F05CFC002817D038495046E4
:1052000006F06CFC002811D0344A3B0016339B009A
:10521000D31851465960BB1D9B00D218009B5360A8
:105220000122BA402F490B8813430B80019806F0E6
:10523000BBFC0022274B05F069FD05F029FC041C8E
:10524000FE21890506F034FC002805D12249201CE6
:1052500006F044FC002824D032001E3292001F4B7E
:105260009B185868414606F023FC002819D01C49B9
:10527000404606F033FC002813D0184A33001E3392
:105280009B00D3184146596033000E339B00D2185F
:10529000019B536008360122B24012490B88134328
:1052A0000B80104B1888104B9C4660444342584179
:1052B000C0B203B0F0BCBB46B246A946A046F0BDA2
:1052C000741C0020701C00207C1C0020781C002016
:1052D0000000B441008046400000304280120020AF
:1052E0000000FA42502B00200100FFFF064B02682D
:1052F0001A60064B42681A60054B82681A60C268E1
:10530000044B1A607047C046701C0020741C0020BB
:10531000781C00207C1C0020F0B5DE4600B584B06F
:10532000040000910192224B9B46224F1B683A6871
:1053300041680068FFF7D2FC02901F4E1F4D336892
:105340002A68E168A068FFF7C9FC03905B461B6808
:105350003A6861682068FFF7F9FC071C33682A681F
:10536000E168A068FFF7F2FC041C1549381C06F040
:10537000B5FB002809D11249201C06F0AFFB00281C
:105380000CD104B080BCBB46F0BD0298FFF75CFCBA
:105390000023009A1370019B1870F2E70398FFF73F
:1053A00053FC0123009A1370019B1870E9E7C04673
:1053B000741C0020701C00207C1C0020781C002025
:1053C0000000FA42F0B5DE4657464E464546E0B587
:1053D00085B0040000910192294B9A46294D1B6823
:1053E0002A6841680068FFF779FC8146264E274FFE
:1053F00033683A68E168A068FFF770FC8046244B88
:105400009B46191C4846FFF74BFC02905946404604
:10541000FFF746FC039053461B682A6861682068C2
:10542000FFF794FC051C33683A68E168A068FFF751
:105430008DFC041C1749281C06F050FB00280CD1D9
:105440001449201C06F04AFB00280FD105B0F0BC1F
:10545000BB46B246A946A046F0BD0298FFF7F4FB52
:105460000023009A1370019B1870EFE70398FFF771
:10547000EBFB0123009A1370019B1870E6E7C0460E
:10548000741C0020701C00207C1C0020781C002054
:105490000000B4410000FA42F0B5DE4657464E46E1
:1054A0004546E0B585B00400334B9A46334D1B6842
:1054B0002A6841680068FFF711FC81460190304E70
:1054C000304F33683A68E168A068FFF707FC804610
:1054D0002D4B9B46191C4846FFF7E2FB02905946AC
:1054E0004046FFF7DDFB039053461B682A6861685E
:1054F0002068FFF72BFC814633683A68E168A068B2
:10550000FFF724FC041C2149484606F0E7FA00286E
:105510000DD11E49201C06F0E1FA002819D1002007
:1055200005B0F0BCBB46B246A946A046F0BD029805
:10553000FFF78AFB164A831D9B00D3180199596017
:105540001630800010184B464360FFF79FFD012086
:10555000E6E70398FFF778FB0D4A03000E339B0044
:10556000D318414659601E30800010184460FFF780
:105570008DFD0120D4E7C046741C0020701C002063
:105580007C1C0020781C00200000B4410000FA427E
:1055900080120020F0B5DE4657464E464546E0B53F
:1055A00089B004000D00484B9B46484B99465B462A
:1055B0001B684A46126841680068FFF78FFB804607
:1055C000434E444F33683A68E168A068FFF786FBB2
:1055D00082465B461B684A46126861682068FFF78E
:1055E000B5FB814633683A68E168A068FFF7AEFB17
:1055F000071C00230793069305930493364C06ABD0
:10560000039307AB0293354B0193354B0093354B16
:10561000220049464046FFF7E5FB2200203204AB5A
:10562000039305AB0293304B0193304B0093304B07
:10563000391C5046FFF7D6FB1C3C0F23E356002BCA
:1056400025DB079806F076FA28602A4BDB7C5BB2F4
:10565000002B23DB069806F06DFA6860254BDB7D96
:105660005BB2002B21DB059806F064FAA860214BA1
:10567000DB7E5BB2002B1FDB049806F05BFAE86070
:1056800009B0F0BCBB46B246A946A046F0BD07999A
:10569000194806F0B4F906F04DFAD5E70699164810
:1056A00006F0ADF906F046FAD7E70599124806F07C
:1056B000A6F906F03FFAD9E704990F4806F09FF9DA
:1056C00006F038FADBE7C046741C0020701C00208E
:1056D0007C1C0020781C00209C120020081A00204E
:1056E000A00F0020C00F0020981A0020E00F00201B
:1056F000001000208012002000F07F450023044AA3
:105700001370044A1370044A1370044A13707047EC
:10571000881A0020901A0020201C0020281C00203D
:1057200010B50121E12049420004FCF757FBFFF7C7
:10573000DDFC0A4C20220021200006F083FB200023
:1057400020302022002106F07DFB0023044A137044
:10575000044A1370044B01221A7010BD0414002077
:10576000562B0020582B0020572B002010B50B4C37
:1057700020600B4801600B490A600B4C2360FFF767
:1057800051FCFFF783FC23685A7830231340302BF9
:1057900000D010BDFFF7C4FFFBE7C046C0170020D4
:1057A000C4170020E01400200015002010B5084B9D
:1057B00000221A70FFF756FCFFF768FC054AE22347
:1057C0005B00D05C01214942FCF79AFA10BDC0464B
:1057D000572B00208012002010B50A4B00221A70AF
:1057E000FFF740FCFBF71AFCC82002F071FDFFF741
:1057F0004DFC054AE2235B00D05C01214942FCF7E5
:105800007FFA10BD572B00208012002010B5024BEC
:105810001868FFF741FE10BDC017002010B5134BEC
:105820001B78002B0CD1124B1868FFF75FFD0F4B54
:1058300001221A700F4B1B689B789B0713D410BD75
:105840000B4B1868FFF774FC0028F3D00A4B1B7849
:10585000002BEFD1084B01221A7001214942074861
:10586000FCF7BCFAE6E7FFF7B7FFE8E7582B0020A4
:10587000C017002000150020562B0020008000805B
:1058800030B55368C51A80242401A04209D00024F1
:105890001457002C0BD1002D06DD01231370086076
:1058A00000E00C60506030BD01235B42F6E7002C45
:1058B00004DD8342F6DA08605060F3E7002C01DB78
:1058C0000860EFE78342EDDD08605060EAE7000022
:1058D00010B503000A00034908681900FFF772FDBC
:1058E00010BDC046C017002010B503000A000349D0
:1058F00008681900FFF710FD10BDC046C017002052
:10590000F0B5DE4657464E464546E0B585B0040044
:105910000D0080231B019B461A0041680068FFF7B9
:1059200015FA81465B465A46E168A068FFF70EFA11
:105930008046824EF1235B00F75A5B46D81B06F087
:10594000D7F88246F3235B00F05A5B46181A06F03C
:10595000CFF88346F2235B00F05A80231B019C465C
:10596000604406F0C5F8514606F053F80090F42361
:105970005B00F05A80231B019C46604406F0B8F897
:10598000594606F046F80190380006F0B1F8061CBA
:10599000494606F09BF800281AD080231B012B6093
:1059A0006B60664AF3235B00D05A06F0A1F8071C2F
:1059B000414606F08BF8002864D080231B01AB60C1
:1059C000EB6005B0F0BCBB46B246A946A046F0BDB0
:1059D000311C484606F013F882468022120113005B
:1059E00061682068FFF77AF900260296039603AAF9
:1059F00002A9FFF7D7F95146009806F020F8071CD6
:105A0000311C06F055F8002809D18A21C905381C37
:105A100006F064F8002803D08A27FF0500E000277D
:105A20000299381C06F00BF8061C0290391C0398EA
:105A300006F005F803908A21C905301C05F0E4FF43
:105A400006F056F906F076F8002805DB80235B01A6
:105A5000984202DB3A4800E0002028608A21C9050C
:105A6000039805F0D1FF06F043F906F063F800282B
:105A700005DB80235B01984202DB314800E0002017
:105A800068608EE7391C404605F0B9FF80468022E9
:105A90001201E168A0681300FFF720F900270297C0
:105AA000039703AA02A9FFF77DF94146019805F083
:105AB000C6FF041C391C05F0FBFF002809D18A2110
:105AC000C905201C06F00AF8002803D08A24E40542
:105AD00000E000240299201C05F0B1FF061C029092
